:100000000C9462000C948A000C948A000C948A0070
:100010000C948A000C948A000C948A000C948A0038
:100020000C948A000C948A000C948A000C948A0028
:100030000C948A000C948A000C948A000C948A0018
:100040000C9440020C948A000C948A000C948A0050
:100050000C948A000C948A000C948A000C948A00F8
:100060000C948A000C948A000000000024002700F1
:100070002A0000000000250028002B0000000000DE
:1000800023002600290004040404040404040202DA
:100090000202020203030303030301020408102007
:1000A0004080010204081020010204081020000012
:1000B0000008000201000003040700000000000027
:1000C00000008C0B11241FBECFEFD8E0DEBFCDBFE8
:1000D00011E0A0E0B1E0ECE1FDE102C005900D927D
:1000E000A23BB107D9F722E0A2EBB1E001C01D921B
:1000F000AC32B207E1F710E0C2E6D0E004C02197CD
:10010000FE010E94810EC136D107C9F70E94EB059E
:100110000C948C0E0C940000CF92DF92EF92FF9221
:100120000F931F93CF93DF936C017A018B01C0E093
:10013000D0E0CE15DF0581F0D8016D918D01D6019B
:10014000ED91FC910190F081E02DC6010995892B7C
:1001500011F02196EECF7E01C701DF91CF911F9163
:100160000F91FF90EF90DF90CF900895089580E079
:1001700090E00895CF93DF93EC0160E08E810E94C0
:100180001B0561E08E810E941B0560E08E810E944C
:100190001B058BE891E00197F1F7DF91CF9108956E
:1001A000FC0181850E94F20421E0892B09F420E002
:1001B000822F08950E94870E84EF91E00C94D30360
:1001C00082E092E00C94D3038EE192E00C94D3038E
:1001D00080E192E00C94D3038EE192E00E947E03D2
:1001E00080E192E00E947E0382E092E00E947E0322
:1001F00084EF91E00C947E03833081F028F4813009
:1002000099F08230A1F008958730A9F08830B9F0D4
:100210008430D1F4809180008F7D03C08091800074
:100220008F7780938000089584B58F7702C084B55E
:100230008F7D84BD08958091B0008F7703C0809139
:10024000B0008F7D8093B0000895CF93DF9390E04E
:10025000FC01E656FF4F2491FC01EA57FF4F8491C1
:10026000882361F190E0880F991FFC01E859FF4F46
:10027000C591D491FC01EE58FF4FA591B491611145
:1002800009C09FB7F8948881209582238883EC91D8
:100290002E230BC0623061F49FB7F8948881322F0F
:1002A000309583238883EC912E2B2C939FBF06C01F
:1002B0008FB7F894E8812E2B28838FBFDF91CF91E1
:1002C00008951F93CF93DF93182FEB0161E00E94F5
:1002D0002501209711F460E004C0CF3FD10539F427
:1002E00061E0812FDF91CF911F910C941B05E12FCD
:1002F000F0E0E255FF4FE491E330F9F048F4E130EB
:10030000B9F0E230A1F584B5806284BDC8BD34C0C7
:10031000E730E9F0E83019F1E43049F580918000E8
:10032000806280938000D0938B00C0938A0024C0A9
:1003300084B5806884BDC7BD1FC08091800080687F
:1003400080938000D0938900C093880015C080916D
:10035000B00080688093B000C093B3000DC080915E
:10036000B00080628093B000C093B40005C0C03874
:10037000D1050CF0B5CFAFCFDF91CF911F9108958C
:10038000862F642F0C9425012FB7F8946091D80123
:100390007091D9018091DA019091DB012FBF08950E
:1003A000AF92BF92CF92DF92EF92FF920F931F9383
:1003B000CF93DF9387E00E94F204019709F042C0D7
:1003C0000E94C401DC01CB019C01AD0160E070E042
:1003D00080E090E0A090B201B090B301C090B40171
:1003E000D090B501E090B601F090B7010091B8014E
:1003F0001091B9010E94780E233F3140410551050B
:10040000610571058105910581F178F10E94C401B2
:10041000DC01CB018093B2019093B301A093B401AE
:10042000B093B5011092B6011092B7011092B801C5
:100430001092B90180E10E94F20461E0892B41F041
:1004400060E006C087E00E94F204892B71F461E04D
:1004500080E1DF91CF911F910F91FF90EF90DF909E
:10046000CF90BF90AF900C941B05DF91CF911F915F
:100470000F91FF90EF90DF90CF90BF90AF900895D5
:100480001F920F920FB60F9211242F933F938F93C9
:100490009F93AF93BF938091D8019091D901A09180
:1004A000DA01B091DB013091D70123E0230F2D3722
:1004B00020F40196A11DB11D05C026E8230F029668
:1004C000A11DB11D2093D7018093D8019093D9012C
:1004D000A093DA01B093DB018091D3019091D40114
:1004E000A091D501B091D6010196A11DB11D8093B7
:1004F000D3019093D401A093D501B093D601BF91BD
:10050000AF919F918F913F912F910F900FBE0F90C0
:100510001F901895CF92DF92EF92FF920F931F9347
:10052000CF93DF936C017C0187E0E80EF11CC0E003
:10053000D0E0062F10E0B8010C2E02C0759567952B
:100540000A94E2F76170F70181917F010E941B0517
:100550002196C430D10579F7C601DF91CF911F9163
:100560000F91FF90EF90DF90CF900C94BA00CF9254
:10057000DF92EF92FF920F931F93CF93DF93EC01E3
:10058000F62E642F8C810E941B058D818F3F19F000
:1005900060E00E941B058F850F2D10E084FF25C0B1
:1005A0006E0187E0C80ED11CE12CF12CB8010E2C95
:1005B00002C0759567950A94E2F76170F601819122
:1005C0006F010E941B05FFEFEF1AFF0A88E0E81693
:1005D000F10461F7CE01DF91CF911F910F91FF9050
:1005E000EF90DF90CF900C94BA00B80184E075953D
:1005F00067958A95E1F7CE010E948A026F2DCE01A0
:10060000DF91CF911F910F91FF90EF90DF90CF90EE
:100610000C948A0241E00E94B70281E090E00895C4
:1006200040E0682F8CED91E00C94B702009769F0E0
:10063000FC0101900020E9F73197AF01481B590BED
:10064000BC018CED91E00C948C0080E090E008956A
:100650008F929F92AF92BF920F931F93CF93DF938E
:10066000CDB7DEB7A1970FB6F894DEBF0FBECDBFF2
:1006700019A2423008F44AE08E010F5D1F4F842E0C
:10068000912CA12CB12CA50194010E94FD0BE62F09
:10069000B901CA0101501109EA3014F4E05D01C04A
:1006A000E95CD801EC93232B242B252B61F7C8019F
:1006B0000E941603A1960FB6F894DEBF0FBECDBF01
:1006C000DF91CF911F910F91BF90AF909F908F902E
:1006D0000895CF93DF93EC01698718860E94D000BC
:1006E000882319F08885836088870E94C4016A8303
:1006F0007B838C839D83DF91CF910895CF92DF928E
:10070000EF92FF921F93CF93DF93EC0188858B7F4D
:100710008887CE010E94D000182F88858695817029
:10072000181759F00E94C4016A837B838C839D83D0
:10073000988582E0892788872AC00E94C401CA80E0
:10074000DB80EC80FD80AB01BC014C195D096E09BA
:100750007F098E819F81A0E0B0E0481759076A07A2
:100760007B07A8F088858170181789F00E94C40162
:100770006A837B838C839D83988581E0892784604D
:1007800088870E94C4016A877B878C879D878885BC
:1007900082FB882780F9DF91CF911F91FF90EF9026
:1007A000DF90CF900895FC01808580FD04C082FB1E
:1007B000882780F9089580E0089581E00E94100361
:1007C0008BE39FE10197F1F708950C9416036430D1
:1007D00008F063E09091EF01691710F06FEF690F77
:1007E000E62FF0E0E452FE4F9489890F80680C9464
:1007F00010038F929F92AF92BF92CF92DF92EF92AF
:10080000FF920F931F93CF93DF936B017C01142F03
:100810009B01AC010E946C0E882319F085EA91E0DF
:1008200027C046015701E894B7F82FEF3FEF4FE795
:100830005FE7C501B4010E946C0E81110DC02FEF5E
:100840003FEF4FE75FE7C501B4010E949B0C18160C
:100850001CF489EA91E00CC02FEF3FEF4FE75FE413
:10086000C701B6010E94FA0D181684F48DEA91E0D2
:10087000DF91CF911F910F91FF90EF90DF90CF907C
:10088000BF90AF909F908F900C9416032FEF3FEF87
:100890004FE75FECC701B6010E949B0C87FDE6CFD6
:1008A00020E030E0A901C701B6010E949B0C87FF40
:1008B0000DC041E06DE28CED91E00E94B702F7FAC5
:1008C000F094F7F8F094C1E0D0E002C0C0E0D0E0CE
:1008D00000E060E070E080E09FE3101741F020E06E
:1008E00030E040E251E40E94A00C0F5FF6CFA70178
:1008F00096010E942F0C6B017C010E94190D4B0187
:100900005C014AE00E942803C80FD91F1123B9F1E6
:10091000C501B4010E94480D9B01AC01C701B6019D
:100920000E942E0C6B017C0141E06EE28CED91E0A7
:100930000E94B702219620E030E040E251E4C70176
:10094000B6010E94FF0D4B015C010E94190D6B0165
:10095000E12CF12C4AE0C701B6010E942803C80F20
:10096000D91FC701B6010E94480D9B01AC01C5010A
:10097000B4010E942E0C6B017C011150E1F6CE01F6
:10098000DF91CF911F910F91FF90EF90DF90CF906B
:10099000BF90AF909F908F900895CF92DF92EF928B
:1009A000FF9297FF18C06B017C0141E06DE28CED76
:1009B00091E00E94B70266277727CB016C197D0969
:1009C0008E099F094AE00E9428030196FF90EF904C
:1009D000DF90CF9008954AE0FF90EF90DF90CF90A6
:1009E0000C942803CF93DF93282F30E0F901E255D0
:1009F000FF4F8491F901E656FF4FD491F901EA5770
:100A0000FF4FC491CC2391F081110E94FC00EC2F88
:100A1000F0E0EE0FFF1FE458FF4FA591B491EC9169
:100A2000ED2381E090E021F480E002C080E090E0DE
:100A3000DF91CF9108951F93CF93DF93282F30E05C
:100A4000F901E255FF4F8491F901E656FF4FD49129
:100A5000F901EA57FF4FC491CC23C1F0162F811141
:100A60000E94FC00EC2FF0E0EE0FFF1FEE58FF4F4E
:100A7000A591B4919FB7F894111104C08C91D095B1
:100A8000D82302C0EC91DE2BDC939FBFDF91CF9186
:100A90001F910895CF93DF93823028F09091EB015E
:100AA00098609093EB018093EF011092F00180E445
:100AB0008093F10180E18093F20180E58093F3015E
:100AC00061E08091E0010E9425018091E1018F3F6A
:100AD00019F061E00E94250161E08091E2010E942D
:100AE0002501CCEDD1E09E012C5D31408091EB01E0
:100AF00084FD03C084E090E002C088E090E021968D
:100B0000281739072CF461E08E810E942501EBCF74
:100B10008BE39DE00197F1F760E08091E0010E9496
:100B20001B0560E08091E2010E941B058091E101BC
:100B30008F3F19F060E00E941B058091EB0184FD5E
:100B400020C063E08CED91E00E948A02CBE4D6E401
:100B5000CE010197F1F763E08CED91E00E948A02EB
:100B60002197F1F763E08CED91E00E948A0283E522
:100B700092E00197F1F762E08CED91E00E948A0229
:100B800015C080620E9410038BE496E40197F1F790
:100B90008091EB0180620E94100383E592E001974F
:100BA000F1F78091EB0180620E9410038091EB01CC
:100BB00080620E94100384E08093EC018CE00E942C
:100BC00010030E94DD0382E08093ED0186E0DF9157
:100BD000CF910C941003789484B5826084BD84B561
:100BE000816084BD85B5826085BD85B5816085BD28
:100BF00080916E00816080936E00109281008091E0
:100C00008100826080938100809181008160809367
:100C10008100809180008160809380008091B1008C
:100C200084608093B1008091B00081608093B000B7
:100C300080917A00846080937A0080917A0082604B
:100C400080937A0080917A00816080937A0080910D
:100C50007A00806880937A001092C10060E088E09A
:100C60000E94250160E089E00E94250160E08AE0A1
:100C70000E94250160E08DE00E9425016DE070E09A
:100C80008EE192E00E94690368E070E080E192E00A
:100C90000E94690369E070E082E092E00E946903CB
:100CA0006AE070E084EF91E00E94690389E190E0DE
:100CB000909325028093240290931702809316024A
:100CC00090930902809308029093FB018093FA01AC
:100CD00080E090E0A8ECB1E48093C8019093C90152
:100CE000A093CA01B093CB0182E390E09093CD0131
:100CF0008093CC019093D1018093D00161E085E095
:100D00000E94250161E086E00E94250161E087E004
:100D10000E94250160E070E085E00E94610160E0D2
:100D200070E086E00E94610160E087E00E941B05A0
:100D300082E00E944A0560E08FE00E94250161E0A8
:100D400080E10E94250124E6C22ED12CE12CF12C59
:100D500004E610E093E0292E312C8091040190915B
:100D600005018230910509F4F3C154F40097A1F014
:100D7000019709F068C40E94DD03C2E0D0E0E0C141
:100D80008430910509F441C30CF45FC2059709F062
:100D90005AC40E94DD034AC40E94DD03C1E0D0E0D2
:100DA0008091040190910501892B09F04CC40E94A7
:100DB000EC000E94D00160E080E00E94E7038AE13D
:100DC00091E00E94E5036091C8017091C901809192
:100DD000CA019091CB0141E00E94F90360E088E0F4
:100DE0000E94E7038FE191E00E94E50384E6A82ECC
:100DF000B12C412C512C320181E480937C008091F4
:100E00007A00806480937A0080917A0086FDFCCF1E
:100E1000609178008091790070E0782B072E000CAB
:100E2000880B990B0E944A0D20E030E040EA50E424
:100E30000E94FF0D20E030EC4FE754E40E94A00C2C
:100E40002AE037ED43E25CE30E94A00C9B01AC0179
:100E5000C301B2010E942F0C2B013C0191E0A91AA1
:100E6000B10851F620E030E048EC52E4C301B20191
:100E70000E94A00C6093C4017093C5018093C601C9
:100E80009093C70161E080E00E94E70381E291E076
:100E90000E94E5036091C4017091C5018091C60173
:100EA0009091C70141E00E94F90361E088E00E944F
:100EB000E7038FE191E00E94E50387E00E94F204DE
:100EC000892B29F41092C3011092C20104C0D0935F
:100ED000C301C093C2018090C8019090C901A09045
:100EE000CA01B090CB014090C4015090C501609000
:100EF000C6017090C701A3019201C501B4010E940F
:100F0000FA0D18162CF4D093C101C093C00111C082
:100F1000A3019201C501B4010E949B0C1092C10172
:100F20001092C00187FF05C0D093BF01C093BE01DE
:100F300004C01092BF011092BE018091C201909135
:100F4000C301009779F460E08BE00E94E70386E23A
:100F500091E00E94E50361E08CE00E94E7038DE2EE
:100F600091E01EC0019709F086C08091C001909168
:100F7000C101009709F06FC38091BE019091BF013C
:100F8000009789F460E08BE00E94E70386E291E03D
:100F90000E94E50361E08CE00E94E70381E391E0B9
:100FA0000E94E50368C0019709F065C060E08AE02F
:100FB0000E94E7038CE391E00E94E50361E08CE08E
:100FC0000E94E70381E391E00E94E5038091D20152
:100FD000811131C02091C4013091C5014091C601F9
:100FE0005091C7016091C8017091C9018091CA01F7
:100FF0009091CB010E942F0C2091000130910101B2
:1010000040910201509103010E94FF0D0E94120DB8
:10101000673371051CF467E370E006C06F3F71052C
:1010200019F014F06FEF70E086E00E94610160E05B
:1010300070E085E01EC0A091D001B091D10128ECF4
:1010400030E00E94710EA70196010E94DE0B49015B
:101050005A0197E3890E911CA11CB11C9092BD010D
:101060008092BC0160E070E085E00E946101B40103
:1010700086E00E9461010E94E800882309F490CE76
:10108000D0930501C09304018BCE0E94D00160E093
:1010900080E00E94E70383E491E00E94E50361E0C1
:1010A00080E00E94E7038AE191E00E94E5036091FD
:1010B000C8017091C9018091CA019091CB0141E0B2
:1010C0000E94F9030E94EC000E94E0008823B1F026
:1010D00020E030E040E85FE36091C8017091C90111
:1010E0008091CA019091CB010E942F0C6093C8019E
:1010F0007093C9018093CA019093CB010E94DC00D8
:101100008823B1F020E030E040E85FE36091C8015F
:101110007091C9018091CA019091CB010E942E0C5F
:101120006093C8017093C9018093CA019093CB0169
:101130000E94E800882321F0D0930501C0930401A8
:101140008091040190910501019709F49ECF7BC223
:101150000E94DD038091040190910501029709F03E
:1011600072C20E94D00160E080E00E94E70381E546
:1011700091E00E94E50361E080E00E94E70380E6E1
:1011800091E00E94E503609100017091010180915E
:1011900002019091030141E00E94F9030E94EC00DA
:1011A0000E94E0008823B1F020E030E040E85FE3F7
:1011B0006091000170910101809102019091030101
:1011C0000E942F0C60930001709301018093020133
:1011D000909303010E94DC00882369F120E030E055
:1011E00040E85FE36091000170910101809102018C
:1011F000909103010E942E0C4B015C0120E030E035
:1012000040E85FE30E949B0C87FD09C080920001CB
:1012100090920101A0920201B09203010CC080E003
:1012200090E0A0E8BFE38093000190930101A093B8
:101230000201B09303010E94E800882309F48ACFD9
:10124000309205012092040185CF0E94DD03C4E0A5
:10125000D0E08091040190910501039709F0F3C15A
:101260000E94D00160E082E00E94E70385E691E001
:101270000E94E50361E080E00E94E70381E791E0DE
:101280000E94E5030E94EC008091CE0161E088237A
:10129000E1F086E00E94E70381E391E00E94E5032C
:1012A00061E08AE00E94E7036091CC017091CD017A
:1012B000072E000C880B990B0E94CD0461E08DE095
:1012C0000E94E70388E791E00DC086E00E94E703F3
:1012D0008DE291E00E94E50361E08AE00E94E7036D
:1012E0008AE791E00E94E5030E94E000882319F05C
:1012F00081E08093CE010E94DC0081111092CE012A
:101300000E94E400882309F476C061E08FE00E9427
:10131000E7038FE791E00E94E5038091CE018823E7
:1013200009F469C081E08093CF018091CF018823C7
:1013300009F461C00E94D0010E94EC000E94E0000C
:101340008823E1F08091CC019091CD010596909396
:10135000CD018093CC0161E08AE00E94E7038BE736
:1013600091E00E94E5038091CC019091CD018436FB
:10137000910524F01093CD010093CC010E94DC0074
:101380008823D9F08091CC019091CD01059790935D
:10139000CD018093CC0161E08AE00E94E7038BE7F6
:1013A00091E00E94E5038091CC019091CD0197FFDF
:1013B00004C01092CD011092CC0161E08AE00E943D
:1013C000E7036091CC017091CD01072E000C880BD2
:1013D000990B0E94CD040E94E400882309F4A5CF54
:1013E00061E08FE00E94E7038DE791E00E94E50352
:1013F0001092CF019ACF0E94E800882309F429CFE8
:10140000D0930501C093040124CF0E94DD03C5E001
:10141000D0E08091040190910501049709F013C177
:101420000E94D00160E082E00E94E70385E691E03F
:101430000E94E50361E080E00E94E70381E891E01B
:101440000E94E5030E94EC008091D20161E08823B4
:10145000E1F086E00E94E70381E391E00E94E5036A
:1014600061E08AE00E94E7036091D0017091D101B0
:10147000072E000C880B990B0E94CD0461E08DE0D3
:101480000E94E70388E791E00DC086E00E94E70331
:101490008DE291E00E94E50361E08AE00E94E703AB
:1014A0008AE791E00E94E5030E94E000882319F09A
:1014B00081E08093D2010E94DC0081111092D20160
:1014C0000E94E400882309F476C061E08FE00E9466
:1014D000E7038FE791E00E94E5038091D201882322
:1014E00009F469C081E08093CF018091CF01882306
:1014F00009F461C00E94D0010E94EC000E94E0004B
:101500008823E1F08091D0019091D10105969093CC
:10151000D1018093D00161E08AE00E94E7038BE76C
:1015200091E00E94E5038091D0019091D101843631
:10153000910524F01093D1010093D0010E94DC00AA
:101540008823D9F08091D0019091D1010597909393
:10155000D1018093D00161E08AE00E94E7038BE72C
:1015600091E00E94E5038091D0019091D10197FF15
:1015700004C01092D1011092D00161E08AE00E9473
:10158000E7036091D0017091D101072E000C880B08
:10159000990B0E94CD040E94E400882309F4A5CF92
:1015A00061E08FE00E94E7038DE791E00E94E50390
:1015B0001092CF019ACF0E94E800882309F429CF26
:1015C000D0930501C093040124CF0E94D00160E0B4
:1015D00082E00E94E70387E891E00E94E5030E9411
:1015E000EC0087E00E94F20461E0019731F584E0AD
:1015F0000E94E70385E991E00E94E5030E94E00074
:10160000882321F061E087E00E941B050E94DC0036
:10161000882321F060E087E00E941B050E94E8001B
:10162000882321F010920501109204018091040199
:1016300090910501059749F206C084E00E94E703F6
:101640008DE991E0D9CF80E090E0892B09F485CB3A
:101650000E9400007FCB019709F00DCD8091BE0163
:101660009091BF01892B09F006CD60E08AE00E94CD
:10167000E70385E391E00E94E50361E08CE00E94CE
:10168000E70381E391E00E94E5038091CE0181119F
:1016900030C02091C4013091C5014091C6015091E4
:1016A000C7016091C8017091C9018091CA019091F0
:1016B000CB010E942E0C209100013091010140913C
:1016C0000201509103010E94FF0D0E94120D7093C0
:1016D000BB016093BA016531710534F084E190E09B
:1016E0009093BB018093BA016091BA017091BB01E4
:1016F0000DC0A091CC01B091CD0124E130E00E9459
:10170000710EA70196010E94DE0BB90185E00E94CF
:10171000610160E070E0ACCCECEDF1E0138212828C
:101720008AE091E0918380838CE084838FEF8583CE
:101730008BE0868384E0878383E0808782E08187F3
:1017400081E08287138614861586168617860E9486
:101750004A05EEE1F2E026E131E031832083128296
:101760001382148215828AE090E097838683108624
:101770001186E0E1F2E03183208312821382148229
:1017800015829783868310861186E2E0F2E031832A
:101790002083128213821482158297838683108697
:1017A0001186E4EFF1E031832083128213821482E8
:1017B000158297838683108611860895052E97FBE0
:1017C0001EF400940E94F50B57FD07D00E94FD0BFC
:1017D00007FC03D04EF40C94F50B509540953095D2
:1017E00021953F4F4F4F5F4F08959095809570958D
:1017F00061957F4F8F4F9F4F0895A1E21A2EAA1B2C
:10180000BB1BFD010DC0AA1FBB1FEE1FFF1FA217B0
:10181000B307E407F50720F0A21BB30BE40BF50BAD
:10182000661F771F881F991F1A9469F76095709536
:10183000809590959B01AC01BD01CF010895A29FB9
:10184000B001B39FC001A39F700D811D1124911D94
:10185000B29F700D811D1124911D08955058BB2712
:10186000AA270E94460C0C94C00D0E94B20D38F0BD
:101870000E94B90D20F039F49F3F19F426F40C941E
:10188000AF0D0EF4E095E7FB0C94A90DE92F0E9433
:10189000D10D58F3BA17620773078407950720F034
:1018A00079F4A6F50C94F30D0EF4E0950B2EBA2FF7
:1018B000A02D0B01B90190010C01CA01A001112456
:1018C000FF27591B99F0593F50F4503E68F11A1602
:1018D000F040A22F232F342F4427585FF3CF469593
:1018E00037952795A795F0405395C9F77EF41F16B5
:1018F000BA0B620B730B840BBAF09150A1F0FF0F7F
:10190000BB1F661F771F881FC2F70EC0BA0F621F6A
:10191000731F841F48F4879577956795B795F7955A
:101920009E3F08F0B0CF9395880F08F09927EE0FEF
:101930009795879508950E94850D08F481E0089594
:101940000E94B40C0C94C00D0E94B90D58F00E9476
:10195000B20D40F029F45F3F29F00C94A90D51110C
:101960000C94F40D0C94AF0D0E94D10D68F39923E3
:10197000B1F3552391F3951B550BBB27AA2762178B
:101980007307840738F09F5F5F4F220F331F441F98
:10199000AA1FA9F335D00E2E3AF0E0E832D09150CC
:1019A0005040E695001CCAF72BD0FE2F29D0660FB9
:1019B000771F881FBB1F261737074807AB07B0E8FC
:1019C00009F0BB0B802DBF01FF2793585F4F3AF002
:1019D0009E3F510578F00C94A90D0C94F40D5F3FD7
:1019E000E4F3983ED4F3869577956795B795F79588
:1019F0009F5FC9F7880F911D9695879597F9089570
:101A0000E1E0660F771F881FBB1F6217730784070B
:101A1000BA0720F0621B730B840BBA0BEE1F88F71A
:101A2000E09508950E94190D6894B1110C94F40D7D
:101A300008950E94D90D88F09F5798F0B92F9927E3
:101A4000B751B0F0E1F0660F771F881F991F1AF0A9
:101A5000BA95C9F714C0B13091F00E94F30DB1E00E
:101A600008950C94F30D672F782F8827B85F39F00D
:101A7000B93FCCF3869577956795B395D9F73EF442
:101A800090958095709561957F4F8F4F9F4F0895EA
:101A9000E89409C097FB3EF4909580957095619508
:101AA0007F4F8F4F9F4F9923A9F0F92F96E9BB27BE
:101AB0009395F695879577956795B795F111F8CF3A
:101AC000FAF4BB0F11F460FF1BC06F5F7F4F8F4FA5
:101AD0009F4F16C0882311F096E911C0772321F09B
:101AE0009EE8872F762F05C0662371F096E8862F33
:101AF00070E060E02AF09A95660F771F881FDAF78A
:101B0000880F9695879597F90895990F0008550FB6
:101B1000AA0BE0E8FEEF16161706E807F907C0F073
:101B200012161306E407F50798F0621B730B840B7B
:101B3000950B39F40A2661F0232B242B252B21F455
:101B400008950A2609F4A140A6958FEF811D811DF5
:101B5000089597F99F6780E870E060E008959FEF2F
:101B600080EC089500240A94161617061806090634
:101B7000089500240A941216130614060506089503
:101B8000092E0394000C11F4882352F0BB0F40F48B
:101B9000BF2B11F460FF04C06F5F7F4F8F4F9F4FCB
:101BA000089557FD9058440F551F59F05F3F71F04D
:101BB0004795880F97FB991F61F09F3F79F08795B4
:101BC0000895121613061406551FF2CF4695F1DF3D
:101BD00008C0161617061806991FF1CF86957105CD
:101BE000610508940895E894BB2766277727CB0101
:101BF00097F908950E94850D08F48FEF08950E94CB
:101C0000120E0C94C00D0E94B20D38F00E94B90D56
:101C100020F0952311F00C94A90D0C94AF0D112414
:101C20000C94F40D0E94D10D70F3959FC1F3950FA4
:101C300050E0551F629FF001729FBB27F00DB11D50
:101C4000639FAA27F00DB11DAA1F649F6627B00DE0
:101C5000A11D661F829F2227B00DA11D621F739FC9
:101C6000B00DA11D621F839FA00D611D221F749FD7
:101C70003327A00D611D231F849F600D211D822F1E
:101C8000762F6A2F11249F5750409AF0F1F0882345
:101C90004AF0EE0FFF1FBB1F661F771F881F915072
:101CA0005040A9F79E3F510580F00C94A90D0C946B
:101CB000F40D5F3FE4F3983ED4F3869577956795EE
:101CC000B795F795E7959F5FC1F7FE2B880F911D9C
:101CD0009695879597F908950E94850D880B990B25
:101CE00008950E941F0CB7FF0895821B930B08955F
:101CF0002A193B094C095D096E097F09800B910B7C
:101D00000895EE0FFF1F0590F491E02D099481E0F6
:0C1D100090E0F8940C948C0EF894FFCF37
:101D1C000000A0400500000000000A038C00B70082
:101D2C00B60000000000D000C00153503A20004320
:101D3C000050563A2000447269766572004F464650
:101D4C00004F4E2000202048656174002020466121
:101D5C006E20004E65772053657420506F696E7449
:101D6C00004E65772050726F702E204761696E00AF
:101D7C004B703A20004D616E75616C204D6F64653F
:101D8C0000486561743A2000250020202020003C8A
:101D9C000046616E3A200044726976657220537475
:101DAC006174757300456E61626C652000446973E3
:101DBC0061626C65006E616E00696E66006F7666BE
:021DCC00000015
:00000001FF
